:020000040800F2
:1000000018070020A9010008612E0008BD2700087C
:100010005D2E00080B1300083D31000800000000B1
:10002000000000000000000000000000912E000809
:100030000F13000800000000652E0008932E000832
:10004000C3010008C3010008C3010008C301000880
:10005000C3010008C3010008C3010008C301000870
:10006000C3010008C3010008C3010008C301000860
:10007000C3010008C3010008C3010008C301000850
:10008000C3010008C3010008C3010008C301000840
:10009000C3010008C3010008C3010008C301000830
:1000A000C3010008C3010008C3010008C301000820
:1000B000C3010008C3010008C3010008C301000810
:1000C000C3010008C3010008C3010008C301000800
:1000D000C3010008C3010008C3010008C3010008F0
:1000E000C3010008C3010008C301000800F002F8C2
:1000F00000F04AF80AA090E8000C82448344AAF178
:100100000107DA4501D100F03FF8AFF2090EBAE875
:100110000F0013F0010F18BFFB1A43F0010318473B
:100120009C3C0000BC3C0000103A24BF78C878C159
:10013000FAD8520724BF30C830C144BF04680C60ED
:10014000704700000023002400250026103A28BF35
:1001500078C1FBD8520728BF30C148BF0B60704739
:10016000662903F0D385642900F08680002070475B
:100170001FB500F08DFB04000020002103F072F990
:10018000E0601FBD10B510BD00F082FC1146FFF706
:10019000EFFF03F005F800F0A0FC03B4FFF7F2FF57
:1001A00003BC00F0E3FC0000094880470948004711
:1001B000FEE7FEE7FEE7FEE7FEE7FEE7FEE7FEE717
:1001C000FEE7FEE704480549054A064B7047000074
:1001D000FD2E0008ED00000818010020180700207F
:1001E00018030020180300200FB41CB5074B06AA03
:1001F0007B4469460090059800F031FB0020694679
:1002000000F040FB1CBC5DF814FB000091060000F0
:100210002DE9F0410E460446002020622046E168A8
:10022000884730B3252805D0D4E901219047206ABA
:10023000401CF2E7E168204600278847050018D0F7
:10024000A5F14100192802D820354FF40067324645
:10025000294620462760FFF783FF40B1012804D0DC
:10026000F61D26F007060836D8E7361DD6E72846DD
:10027000DAE7206ABDE8F0812DE9F0410646002466
:1002800010687529314616A510D0AFF300800028FC
:1002900002DA404213A507E031688A0701D512A5AA
:1002A00002E0490704D511A5012401E0AFF3008065
:1002B00000210A2206F1240709E0B0FBF2FCB0FBA2
:1002C000F2F302FB1C00303078541846491C002819
:1002D000F3D123462A463046BDE8F04100F051B83C
:1002E000000000002D0000002B0000002000000096
:1002F00010B5431C02E010F8011B71B18107FAD15F
:100300004FF0013202C88C1A8C4314EAC211F9D0A2
:10031000C01A0A0603D0C01E10BDC01A10BD0A04C0
:1003200001D0801E10BD0902FCD0401E10BD4FF050
:10033000000200B5134694469646203922BFA0E835
:100340000C50A0E80C50B1F12001BFF4F7AF090741
:1003500028BFA0E80C5048BF0CC05DF804EB890032
:1003600028BF40F8042B08BF704748BF20F8022B75
:1003700011F0804F18BF00F8012B7047704770478D
:1003800070472DE9F0470D4699469246044600F124
:1003900024080168880604D5E06921F01001216075
:1003A00000E00120A84201DD471B00E00027A16911
:1003B0007A1902EB0900081AA0612078C00602D45D
:1003C0002046AFF30080002608E0D4E901211AF8A6
:1003D00006009047206A401C761C20624E45F4DBE4
:1003E0002078C0060AD52046AFF3008006E0D4E9A5
:1003F000012130209047206A401C2062381EA7F15E
:100400000107F4DC07E0D4E9012118F80500904762
:10041000206A401C2062281EA5F10105F3DC20465D
:10042000AFF300802078000602D50220BDE8F087F7
:100430000120FBE770472DE9FF4F0C461E464FF0A9
:10044000FF378BB0D2E90001DDF860800A908A4660
:10045000C1F30A5505B93D46002108464FF000009A
:10046000BAF1000F00F4400005DA00EB80004FF411
:10047000400101EA50004FEA9059B9F1010F00DD47
:10048000B9460A9850EA4A000ED044F61050A5F238
:10049000FF3545432F14B8F1000F1ED07542291EB9
:1004A0001EDDC9F100021CE0B8F1010F4FF00000A1
:1004B00001D0302103E0F24305E02154401CB0425A
:1004C000FBDB30460022002121540B99C1F8088043
:1004D000C1E900200FB0BDE8F08FBD1B6D1CDEE749
:1004E0004A4600DA694206A800F05CFA06AB93E8D7
:1004F000070003AB83E8070050460A9900F03DFB74
:100500008DE80700A0F500501F3800900398002DDB
:100510000ADD42F21F014A460844002303A9039062
:10052000684600F0A6FD09E0A0F500504A461F38D5
:10053000002303A90390684600F0B0FD8DE8070092
:100540000004000C03D04FF0FF30410800E01046DB
:10055000B8F1000F03D00022009215461EE0751E70
:1005600005D400F099F9303262556D1EF9D5B346C5
:100570000122084302D000227F1C04E020783028AA
:1005800001D100227F1E002A099784D01DE0112D81
:1005900007DA00F081F9303262556D1C50EA010231
:1005A000F5D1084302D00098C8B10EE00021681EC2
:1005B00005E0235C625C63542254401E491C814266
:1005C000F7DBAB46A81B401E0990002004F80B0087
:1005D0000B98099AC0F80880C0E9002B7AE7112629
:1005E0004FF0000857E72DE9F04F88460446D21D2A
:1005F00022F0070191B0D1E90001CDE90A0102F032
:100600009FFD02460B98C00F01D02D2007E0206807
:10061000810701D52B2002E0202101EAC000032A36
:10062000099001D0072A05DB03464146204600F029
:1006300079F90BE12078800601D5E06900E0062019
:10064000B8F1650F814606D0B8F1660F18D0B8F141
:10065000670F70D131E00020B9F1110F009001DB7C
:10066000112301E009F101030AAA01A90CA8FFF76F
:10067000E2FEDDE90C70002609F10105834647E042
:1006800001204B4600904FF000470AAA01A90CA890
:10069000FFF7D1FEDDE90DB00C995D46002610B9DB
:1006A00009F101000D18B9EB050003D4C0F1FF36C4
:1006B00009F10105A5EB09002BE0B9F1010F01DA01
:1006C0004FF001090020B9F1110F0090484601DDFB
:1006D000112300E003460AAA01A90CA8FFF7ABFE0C
:1006E000DDE90C704D4600268346207800070AD4C9
:1006F000AB4500DA5D4601A8012D04DD411911F872
:10070000011C302907D04F4502DA17F1040F04DA33
:10071000012082460FE06D1EEEE7002F02DCED1B8C
:100720003E4403E0781CA84200DD7D1CB81B00F1AC
:10073000010A4FF000472078000703D4AA4501DBE7
:100740004FF0FF3A0021B7F1004F0DF143088DF84B
:10075000431024D002202B23002F01DA7F422D23C7
:100760000A21021EA0F1010000DC5FB197FBF1FC41
:1007700097FBF1F201FB1C7C17460CF1300C08F8DA
:1007800001CDEEE7A8F1010003702188090501D52C
:10079000452100E06521A0F1010800F8011C09983D
:1007A0000FA9A1EB0807FF1D00B10120411901EBC2
:1007B000EA70A1693844081A401EA0612078C0067A
:1007C00002D42046AFF30080099828B1D4E9012172
:1007D0009047206A401C20622078C00622D520461F
:1007E000AFF300801EE0002E04DBB34502DD01A85C
:1007F000805D00E03020D4E901219047206A401C50
:100800002062761CAAF101005FEA000A0AD100F01A
:100810003FF8C0680168405CD4E901219047206A34
:10082000401C2062281EA5F10105DCDC07E0D4E9AC
:10083000012118F8010B9047206A401C2062381EE5
:10084000A7F10107F3DC2046AFF30080032011B0CD
:1008500041E6000001694A1C02610878704700B552
:100860008FB0CDE901310021059105497944CDE9E9
:10087000031011466846FFF7CBFC0FB000BD000027
:10088000E5FFFFFF0A6802F8010B0A6070470000ED
:1008900000487047D800002030B5B0F10A024FEA96
:1008A000900E71F100034EEA817EB0EB0E0061EB19
:1008B00091014FEA101E4EEA017E10EB0E0041EB53
:1008C00011114FEA102E4EEA016E10EB0E0041EBB3
:1008D00011214FEA104E4EEA014E10EB0E0041EB93
:1008E0001141401841F100014FEAD00040EA417047
:1008F0004FEAD10110EB80054FEA810444EA90747D
:1009000044EB01046D1944EB0404521BA3414FF066
:10091000000348BF0A3200D530BD401C41F1000140
:1009200030BD00002DE9F0411F4604460326016852
:10093000072A01F4006004DB08B116A505E016A53E
:1009400003E008B115A500E015A521F01000206016
:10095000A069C01EA0610FB1401EA0612046AFF388
:1009600000804FB1D4E9012138469047206A401CED
:100970002062C01C206206E0206AFAE7D4E9012167
:1009800015F8010B9047761EF8D22046AFF3008091
:10099000BDE8F0814E414E006E616E00494E46004A
:1009A000696E66002DE9F047814616468AB03548E3
:1009B00078440DC88DE80D0032487844801C03ACA3
:1009C0000DC884E80D0041F69B300844372190FBA8
:1009D000F1F290FBF1F5A5F1800501FB12041B3C3F
:1009E00002D56442012000E00020DFF898A0804694
:1009F0000027FA44AAF1BE0A0EE0E0070AD0324608
:100A0000684607EB470101230AEB810100F046FB32
:100A10008DE8070064107F1C002CEED1194F7F4435
:100A2000AE3F19E0E80715D007EB04100DF1180AE6
:100A300090E80E008AE80E00C068F04201D19819D3
:100A400008903246012306A903A800F027FB03AB58
:100A500083E807006D10641C002DE3D14FF0010303
:100A600032466946B8F1000F03A802D000F001FB3E
:100A700001E000F013FBC9E90001C9F808200AB041
:100A8000BDE8F087F033000000487047B800002050
:100A90007546FFF7F9FFAE4605006946534620F05C
:100AA0000700854618B020B5FFF78CFBBDE8204055
:100AB0004FF000064FF000074FF000084FF0000B1A
:100AC00021F00701AC46ACE8C009ACE8C009ACE8CD
:100AD000C009ACE8C0098D46704710B50446AFF3B5
:100AE00000802046BDE81040FFF757BB4FF0013CA7
:100AF00050F8042B51F8043B9A4221D1A2EB0C038D
:100B0000934313EACC1317D150F8042B51F8043B4C
:100B10009A4215D1A2EB0C03934313EACC130BD1E9
:100B200050F8042B51F8043B9A4209D1A2EB0C0374
:100B3000934313EACC13DBD04FF00000704700BFA3
:100B4000D01A01BAB1FA81F101F0180122FA01F0CC
:100B5000CB40C1F12001DBB2C0B2C01A2CFA01F3C4
:100B6000D11A914311EAC311E6D170470149182007
:100B7000ABBEFEE72600020070475FEA400C08BFEC
:100B800091F0000F4FEA8C234FEAC12243EA515102
:100B90004FEA1C5018BF00F5F0404FEA300018BF74
:100BA00041F000415FEA6C5C00F02980BCF1FF3F3E
:100BB00008BF40F080407047130C06BF12044FF08E
:100BC000100C4FF0000C130E04BF12020CF1080CB5
:100BD000130F04BF12010CF1040C930F04BF920019
:100BE0000CF1020CD30F04BF52000CF1010C1146A2
:100BF0004FF00002A0F11F00A0EB0C00704711F0B5
:100C0000004F08BF704731F000413FF4D5AF0B0CE7
:100C100006BF09044FF0100C4FF0000C0B0E04BF80
:100C200009020CF1080C0B0F04BF09010CF1040CB4
:100C30008B0F04BF89000CF1020CCB0F04BF4900DD
:100C40000CF1010CCCF12003A0EB0C0022FA03F311
:100C500002FA0CF241EA030100F10100704720F0B2
:100C60007F4C80EA030023F07F47ACEB070303F5DA
:100C70007C5300F0004003F1FF032DE980494FEA67
:100C8000154B09B44FEA144325EA0B4E24EA0348F6
:100C90000FF2042606EB132749083E785FEA32027A
:100CA00003FB0667C7F5000707FB06F64FEA543754
:100CB0004FEAD64606F1020607FB066CCCF1005C53
:100CC0004FEA1C472CEA074C07FB06F40CFB06F521
:100CD00004EB15464FEA961634BF00204FF0004053
:100CE0004FEAD13706FB07FC4FEA1C4C0CFB0BF715
:100CF000D21B03FB0CF761EB07010CFB0EF7B0EB0B
:100D0000074072EB17420CFB08F734BFA2EB074217
:100D1000B2EB074261EB17414FEA0C444FEA9107EF
:100D200006FB07FC4FEA1C4C0CFB0BF7B0EBC74073
:100D300072EB573203FB0CF734BFA2EBC742B2EBA6
:100D4000C74261EB57310CFB0EF7B0EBC70072EBFB
:100D500057720CFB08F734BFA2EBC702B2EBC70215
:100D600061EB5771039F4FEA816141EA921104EBF5
:100D7000CC044FEAD1374FEA826206FB07FC42EA15
:100D800090124FEA80604FEA1C4C0CFB0BF7D21B11
:100D900003FB0CF761EB07010CFB0EF7B0EB074010
:100DA00072EB17420CFB08F734BFA2EB0742B2EB21
:100DB000074261EB17414FEA8C554FEA910704EB6C
:100DC0009C2406FB07FC4FEA1C4C0CFB0BF7B0EB1A
:100DD000C74072EB573203FB0CF734BFA2EBC7429C
:100DE000B2EBC74261EB57310CFB0EF7B0EBC7001B
:100DF00072EB57720CFB08F734BFA2EBC702B2EBE1
:100E0000C70261EB577115EB4C254FEA816141EA4E
:100E100092114FEA82624FEAD13742EA901206FB02
:100E200007FC44F100044FEA80604FEA1C4C0CFBC5
:100E30000BF7D21B03FB0CF761EB07010CFB0EF762
:100E4000B0EB074072EB17420CFB08F734BFA2EB84
:100E50000742B2EB074261EB174115EB1C154FEA55
:100E6000813141EA92414FEA823242EA90424FEAAE
:100E700080304FEA0C7644F1000448EA03434EEA1E
:100E80000B484FF0000EB2EB080C71EB030724BFC8
:100E9000624639464EEB0E0E4FF0000B00185241E1
:100EA00049414BEB0B0BB2EB080C71EB03077BF1E9
:100EB000000B24BF624639464EEB0E0E4FF0000B7E
:100EC0000018524149414BEB0B0BB2EB080C71EB94
:100ED00003077BF1000B24BF624639464EEB0E0E32
:100EE00051EA020718BF46F0010616EB0E7655F1DF
:100EF000000254F1000103D5BDE88901BDE8008876
:100F0000BDE88901BDE80048B619524141EB010135
:100F1000A3F10103704780807F7E7D7C7B7A7978A6
:100F2000777676757473727171706F6E6E6D6C6CAE
:100F30006B6A6A6968686766666564646363626150
:100F40006160605F5F5E5E5D5D5C5C5B5B5A5A59D1
:100F5000595858575756565555555454535352523D
:100F60005251515050504F4F4F4E4E4D4D4D4C4C95
:100F70004C4B4B4B4A4A4A494949484848474747DE
:100F8000474646464545454444444443434343421B
:100F9000424242414141002B9C4630D477002BD045
:100FA0001CB54FEA370703B44FF010004FF01001A3
:100FB000BAF1000F06D0BCF1000FDCBF40F0080012
:100FC00040F008014FF000000FBCBDE810400BF1ED
:100FD000010BBBF1010F08BF5FEA170722BF12F137
:100FE000010211F101014FF0004143F1000300F053
:100FF000004043EA00007047F9D35708D0E746EABB
:10100000064613F1400F4FEA16461FDD13F1200F7D
:10101000DFBF16430A46002120335B42BED0C3F136
:10102000200746EA064602FA07F74FEA164646EA5E
:101030000706C3F1200722FA03F201FA07F721FAA3
:1010400003F14FF0000342EA0702A7E746EA02066F
:1010500046EA06464FEA164646EA0106BCBF46EA9D
:101060000646360C4FF000034FF000024FF000012F
:1010700094E72DE9804C9A46934670B491E8380085
:1010800007C831EA400C48BF34EA430C03D5FFF7E8
:10109000E6FDFFF780FFF0BCBDE8008C2DE9804C39
:1010A0009A46934670B491E8380007C810F0804F14
:1010B00008BF13F0804F03D100F005F8FFF76BFF76
:1010C000F0BCBDE8008C20F07F4780EA030023F0ED
:1010D0007F4C07EB0C03A3F57C5300F00040A3F119
:1010E000FE0392F0000F00F0B38095F0000F00F0C7
:1010F00077802DE901494FEA11404FEA144621EA71
:10110000004800FB06FC24EA064708FB06F607FB3E
:1011100008F800FB07F718EB06484CEB164C4FEAB3
:10112000124B18EB07484FEA15464CEB174022EAE2
:101130000B4E0BFB06FC25EA06470EFB06F607FBEB
:101140000EFE0BFB07F71EEB064E4CEB164C4FF05A
:1011500000061EEB074E4CEB174B18EB0B0840F14B
:10116000000018EB0E0B58EB000840F100008F1A3E
:101170004FF000013CBFC943661B14BFB5EB040C24
:1011800000213CBFC943F61B4FEA17444EEA8E0EBE
:1011900027EA04454FEA1C4704FB07622CEA074C88
:1011A00005FB07F70CFB05F604FB0CFC16EB0746EA
:1011B00042EB174216EB0C4642EB1C421BEB0606B9
:1011C00058EB0202414146EA9E0601D5BDE801897D
:1011D000B619524141EB0101A3F10103BDE80189B8
:1011E0004FEA14454FEA114724EA054621EA074C25
:1011F00005FB07F406FB07F70CFB06F105FB0CFCEF
:1012000011EB074144EB17444FEA124711EB0C4135
:1012100044EB1C4422EA074C05FB07F206FB07F7E8
:101220000CFB06F605FB0CFC16EB074642EB1742DF
:1012300016EB0C4642EB1C456A1854F1000148BFFE
:101240007047B619524141EB0101A3F10103704708
:1012500095F0000F37D04FEA11424FEA144721EAC8
:10126000024624EA074C02FB07F106FB07F70CFBDA
:1012700006F402FB0CFC14EB074441EB17414FEA68
:10128000154714EB0C4441EB1C4125EA074C02FBCB
:1012900007F506FB07F70CFB06F602FB0CFC16EB4A
:1012A000074645EB174516EB0C4645EB1C42121959
:1012B00051F1000148BF7047B619524141EB01019D
:1012C000A3F1010370474FEA14454FEA114724EA9E
:1012D000054621EA074C05FB07F106FB07F70CFB67
:1012E00006F24FF0000605FB0CFC12EB074241EB47
:1012F000174112EB0C4251EB1C4148BF704792184A
:1013000041EB0101A3F10103704700BFFEE7704705
:1013100072B600BFFEE7000070B5044600F0B0F9F9
:1013200006462546681C10B104480078054400BFF5
:1013300000F0A6F9801BA842FAD370BD1800002067
:101340002DE9F8470346002294466EE14FF001086C
:1013500008FA02F4D1F8008008EA0400A0427DD126
:10136000DFF8DCA2D1F80480A8EB0A09D0453AD016
:1013700014DCB8F1030F50D009DCB8F1000F31D004
:10138000B8F1010F1CD0B8F1020F49D120E0B8F13B
:10139000110F18D0B8F1120F42D11EE0B9F5881F15
:1013A00025D006DCB9F5803F20D0B9F5801F37D1B4
:1013B0001AE0B9F5001F18D0B9F5041F30D117E0B5
:1013C000D1F80CC02DE0D1F80C8008F1040C28E015
:1013D000D1F80C8008F1080C23E0D1F80C8008F15A
:1013E0000C0C1EE000BF00BF00BF00BF00BF00BF6D
:1013F000D1F80880B8F1000F02D14FF0040C0BE0D7
:10140000D1F80880B8F1010F03D14FF0080C1C612E
:1014100002E04FF0080C5C6103E04FF0000C00E0CC
:1014200000BF00BFFF2801D8984601E003F104087F
:101430004646FF2802D84FEA820803E0A2F10808D6
:101440004FEA88084746D6F800804FF00F0909FA9E
:1014500007F928EA09080CFA07F900E088E048EAE9
:101460000908C6F80080D1F8048008F08058B8F167
:10147000805F7DD100BFDFF8CC81D8F8188048F0BC
:101480000108DFF8C091C9F81880C846D8F818805C
:1014900008F00108CDF8008000BF00BF4FEAB9385E
:1014A0004FEA920958F829504FEA82784FEA1879A2
:1014B0004FF00F0808FA09F825EA0805DFF88881D7
:1014C000434502D14FF0000816E0DFF88081434524
:1014D00002D14FF001080FE0DFF87481434502D1DB
:1014E0004FF0020808E0DFF86C81434502D14FF06D
:1014F000030801E04FF004084FEA82794FEA1979B6
:1015000008FA09F848EA0505DFF84C814FEA920924
:1015100048F82950D1F8048008F48038B8F5803FA5
:101520000AD1DFF83881D8F8008048EA0008DFF8EF
:101530002C91C9F8008009E0DFF82081D8F80080FC
:1015400028EA0008DFF81491C9F80080D1F8048077
:1015500008F40038B8F5003F10D1DFF8008108F139
:101560000408D8F8008048EA0008DFF8F09000E0AE
:101570005AE009F10409C9F800800DE0DFF8DC80C9
:1015800008F10408D8F8008028EA0008DFF8CC90B9
:1015900009F10409C9F80080D1F8048008F4801822
:1015A000B8F5801F0ED1DFF8B48008F10808D8F82C
:1015B000008048EA0008DFF8A49009F10809C9F89A
:1015C00000800DE0DFF8948008F10808D8F800806A
:1015D00028EA0008DFF8849009F10809C9F80080BA
:1015E000D1F8048008F40018B8F5001F0ED1DFF818
:1015F0006C8008F10C08D8F8008048EA0008DFF891
:101600005C9009F10C09C9F800800DE0DFF84C800E
:1016100008F10C08D8F8008028EA0008DFF83C90B0
:1016200009F10C09C9F80080521CD1F8008028FA91
:1016300002F8B8F1000F7FF489AEBDE8F88700002A
:10164000000011100010024000080140000C014091
:101650000010014000140140080001400004014056
:1016600010B5C26821EA020302EA010443EA044316
:10167000036110BD0AB1016101E00B040361704711
:1016800001480068704700001000002070B5044653
:101690000CB9012070BD94F83D0028B9002084F8F1
:1016A0003C00204600F03EFB242084F83D002068EA
:1016B000006820F00100216808602068006840F49C
:1016C0000040216808602068006820F4004021681C
:1016D000086000F0E5FC05465C496068884206D871
:1016E0005B48854201D2012007E0002005E059480F
:1016F000854201D2012000E00020012800D1C9E785
:101700005548B5FBF0F62068406820F03F003043B4
:10171000216848604D496068884201D8701C07E024
:101720004FF4967070434FF47A71B0FBF1F0401CA7
:101730002168096A21F03F01084321680862434992
:101740006068884214D8681E61684900B0FBF1F0F7
:10175000401CC0F30B00042801D204203DE0681EA9
:1017600061684900B0FBF1F0401CC0F30B0034E0AD
:10177000A06838B9681E616801EB4101B0FBF1F067
:10178000401C0AE0681E616801EBC10202EB011116
:10179000B0FBF1F0401C40F48040C0F30B0008B9EE
:1017A00001201AE0A06848B9681E616801EB410198
:1017B000B0FBF1F0401CC0F30B000CE0681E616848
:1017C00001EBC10202EB0111B0FBF1F0401CC0F3D0
:1017D0000B0040F4804040F400402168C9694CF699
:1017E000FF72914308432168C861D4E907010843A7
:1017F0002168096821F0C001084321680860D4E924
:10180000031008432168896848F2FF329143084376
:1018100021688860D4E9050108432168C96821F07E
:10182000FF0108432168C8602068006840F001009B
:101830002168086000202064202084F83D000020FA
:10184000206384F83E0000BF24E70000A08601006A
:1018500080841E0000093D0040420F002DE9FE4F2C
:1018600004460F4690469946DDE90CAB0E9E0020DB
:101870000290FFF705FF054694F83D00202872D13D
:1018800019230122CA492046009501F007F910B139
:101890000220BDE8FE8F00BF94F83C00012801D172
:1018A0000220F6E7012084F83C0000BF20680068B1
:1018B00000F0010028B92068006840F001002168AC
:1018C00008602068006820F4006021680860222019
:1018D00084F83D00402084F83E0000202064C4F8D5
:1018E00024A0A4F82AB0608D2085B248E0624B465F
:1018F000424639462046CDE9006500F081FF08B137
:101900000120C6E7208D88B900BF00200190206823
:101910004069019020688069019000BF00BF206885
:10192000006840F40070216808604BE0208D0128B9
:101930001AD12068006820F480602168086072B6BF
:1019400000BF0020019020684069019020688069F4
:10195000019000BF00BF2068006840F4007021685B
:10196000086062B62EE020E1208D022819D120689F
:10197000006840F400602168086072B600BF002073
:10198000019020684069019020688069019000BF43
:1019900000BF2068006820F480602168086062B69B
:1019A00010E02068006840F480602168086000BF93
:1019B00000200190206840690190206880690190B2
:1019C00000BF00BFE2E0208D03287DD8208D0128D4
:1019D00015D12A463146204601F005F908B101200B
:1019E00057E720680069616A0870606A401C60629D
:1019F000208D401E2085608D401E6085C6E0208DB4
:101A000002282CD1334600226B492046009501F074
:101A100045F808B101203CE772B62068006840F440
:101A200000702168086020680069616A0870606A57
:101A3000401C6062208D401E2085608D401E6085A8
:101A400062B620680069616A0870606A401C606262
:101A5000208D401E2085608D401E608596E03346B7
:101A6000002255492046009501F018F808B10120E0
:101A70000FE72068006820F480602168086072B673
:101A800020680069616A0870606A401C6062208D8D
:101A9000401E2085608D401E6085484800681921E1
:101AA000B0FBF1F04FF47A71B0FBF1F0C0EBC00085
:101AB00000EB8000029000BF0298401E0290029846
:101AC000A8B90020206300E039E0202084F83D0020
:101AD000002084F83E00206C40F02000206462B6B4
:101AE00000BF002084F83C0000BF0120D1E6206840
:101AF0004069C0F380000028DED02068006840F410
:101B000000702168086020680069616A0870606A76
:101B1000401C6062208D401E2085608D401E6085C7
:101B200062B620680069616A0870606A401C606281
:101B3000208D401E2085608D401E608526E02A464F
:101B40003146204601F04FF808B10120A1E6206897
:101B50000069616A0870606A401C6062208D401EE6
:101B60002085608D401E608520684069C0F380003C
:101B700060B120680069616A0870606A401C606238
:101B8000208D401E2085608D401E6085208D0028A0
:101B90007FF419AF202084F83D00002084F83E0037
:101BA00000BF84F83C0000BF73E6022071E600002D
:101BB000020010000000FFFF040001001C000020D4
:101BC0002DE9FC5F04460F4690469946DDE90CABD3
:101BD0000E9EFFF755FD054694F83D0020287DD167
:101BE000192301224D492046009500F057FF10B1FE
:101BF0000220BDE8FC9F00BF94F83C00012801D101
:101C00000220F6E7012084F83C0000BF206800684D
:101C100000F0010028B92068006840F00100216848
:101C200008602068006820F40060216808602120B6
:101C300084F83D00402084F83E0000202064C4F871
:101C400024A0A4F82AB0608D20853548E0624B4678
:101C5000424639462046CDE9006500F081FE08B1D4
:101C60000120C6E731E02A463146204600F0FBFF5E
:101C700050B1206C042805D12068006840F4007041
:101C8000216808600120B4E7606A00782168086173
:101C9000606A401C6062208D401E2085608D401E61
:101CA000608520684069C0F3800070B1208D60B10C
:101CB000606A007821680861606A401C6062208D5B
:101CC000401E2085608D401E6085208D0028CAD171
:101CD0002A463146204600F0B3FE00E01CE050B139
:101CE000206C042805D12068006840F40070216849
:101CF000086001207DE72068006840F400702168DA
:101D00000860202084F83D00002084F83E0000BFD9
:101D100084F83C0000BF6CE702206AE70200100074
:101D20000000FFFF10B586B004460020029003902B
:101D30000490059015492068884225D100BF1448B9
:101D4000806940F00800124988610846806900F007
:101D50000800019000BF00BFC02002901220039035
:101D60000320059002A90B48FFF7EAFA00BF0848D4
:101D7000C06940F400100649C8610846C06900F413
:101D80000010019000BF00BF06B010BD005400401D
:101D900000100240000C0140034800680349097824
:101DA0000844014908607047100000201800002016
:101DB00010B50848006840F010000649086003208C
:101DC00000F08EF80F2000F007F800F02BF800204C
:101DD00010BD00000020024070B504460E48007897
:101DE0004FF47A71B1FBF0F00C490968B1FBF0F5E2
:101DF000284600F0F1FB08B1012070BD102C07D27D
:101E000000222146501E00F02DF80548046001E034
:101E10000120F2E70020F0E7180000201C0000205D
:101E20001400002008B500BF0D48806940F0010093
:101E30000B4988610846806900F00100009000BFEE
:101E400000BF00BF0846C06940F08050C861084626
:101E5000C06900F08050009000BF00BF08BD0000C6
:101E6000001002402DE9F05F80460D46164600271F
:101E700001F07AF9074639462A46334601F0070051
:101E8000C0F1070ABAF1040F02D94FF0040A01E0C9
:101E9000C0F1070AD14600F1040ABAF1070F02D2D5
:101EA0004FF0000A01E0A0F1030AD4464FF0010A06
:101EB0000AFA09FAAAF1010A0AEA020A0AFA0CFA6B
:101EC0004FF0010B0BFA0CFBABF1010B0BEA030B10
:101ED0004AEA0B042146404601F04EF9BDE8F09F66
:101EE00000BF00F00702064B19684FF6FF031940C8
:101EF000044B0B4343EA0221014B196000BF7047BA
:101F00000CED00E00000FA0570B504460D460CB972
:101F1000012070BD5A48006800F00700A8420ED2A8
:101F20005748006820F007002843554908600846D4
:101F3000006800F00700A84201D00120E9E72078FE
:101F400000F0020002281DD1207800F004000428CF
:101F500005D14C48406840F4E0604A494860207828
:101F600000F00800082805D14648406840F4605059
:101F7000444948604348406820F0F000A1680843A5
:101F800040494860207800F0010078B3606801287B
:101F900006D13C48006800F4003090B90120B8E751
:101FA0006068022806D13748006800F0007040B928
:101FB0000120AEE73348006800F0020008B90120B4
:101FC000A7E73048406820F00300616808432D49C6
:101FD0004860FFF755FB064609E0FFF751FB801B01
:101FE00041F28831884202D9032092E707E0254870
:101FF000406800F00C006168B0EB810FEDD1204823
:10200000006800F00700A8420ED91D48006820F0C3
:10201000070028431A4908600846006800F00700D6
:10202000A84201D0012074E7207800F004000428C1
:1020300007D11448406820F4E060E1680843114982
:102040004860207800F00800082808D10D48406852
:1020500020F46050216940EAC1000A49486000F05C
:102060003FF808494968C1F30311074A515CC84069
:102070000649086006480068FFF7AEFE002048E702
:102080000020024000100240103D00081C0000200B
:102090001400002001480068704700001C00002068
:1020A00000B5FFF7F7FF04494968C1F30221034A6D
:1020B000515CC84000BD000000100240203D0008F7
:1020C00000B5FFF7E7FF04494968C1F3C221034A9D
:1020D000515CC84000BD000000100240203D0008D7
:1020E000F0B585B00FF26C0C9CE8E01001A8A0E8F8
:1020F000E0101CA52D68009500210022002300247B
:102100000020194D696801F00C05F5B1042D02D0CD
:10211000082D19D101E0154819E001ADC1F383463E
:10212000AC5D01F4803555B10F4D6D68C5F3404588
:102130001DF805200D4D6543B5FBF2F302E00C4D93
:1021400004FB05F3184602E000BF084800BF00BFCB
:1021500005B0F0BD02030405060708090A0B0C0DC3
:102160000E0F1010010200000010024000127A0051
:1021700000093D00F8B504460CB90120F8BD2078EF
:1021800000F00100002878D0F848406800F00C000A
:1021900004280CD0F548406800F00C00082811D144
:1021A000F248406800F48030B0F5803F0AD1EF4833
:1021B000006800F4003000285FD0606800285CD11F
:1021C0000120DBE700BF6068B0F5803F06D1E7483B
:1021D000006840F48030E549086028E0606858B93C
:1021E000E248006820F48030E04908600846006852
:1021F00020F4802008601AE06068B0F5A02F0BD1B1
:10220000DA48006840F48020D84908600846006831
:1022100040F4803008600AE0D448006820F4803040
:10222000D24908600846006820F48020086000BF9A
:10223000606888B1FFF724FA054606E0FFF720FA48
:10224000401B642801D9032098E7C848006800F4BF
:1022500000300028F2D010E0FFF712FA054606E041
:10226000FFF70EFA401B642801D9032086E7BF4818
:10227000006800F400300028F2D1207800F002005D
:10228000022857D1B948406800F00C0050B1B74857
:10229000406800F00C00082818D1B448406800F4E9
:1022A000803098B9B148006800F0020020B1206980
:1022B000012801D0012061E7AC48006820F0F80057
:1022C000616940EAC100A949086033E02069E8B1CA
:1022D0000120A7490860FFF7D3F9054606E0FFF79C
:1022E000CFF9401B022801D9032047E79F48006827
:1022F00000F002000028F2D09C48006820F0F800AE
:10230000616940EAC1009949086013E000209849DA
:102310000860FFF7B5F9054606E0FFF7B1F9401B85
:10232000022801D9032029E79048006800F0020044
:102330000028F2D1207800F0080008282DD1A069EB
:10234000B8B101208B490860FFF79AF9054606E00D
:10235000FFF796F9401B022801D903200EE78348B6
:10236000406A00F002000028F2D0012000F07CFD5D
:1023700013E000207F490860FFF782F9054606E078
:10238000FFF77EF9401B022801D90320F6E67748C3
:10239000406A00F002000028F2D1207800F004002A
:1023A000042873D100277148C06900F0805070B9CB
:1023B00000BF6E48C06940F080506C49C861084653
:1023C000C06900F08050009000BF00BF01276A483C
:1023D000006800F48070B0B96748006840F480700D
:1023E00065490860FFF74CF9054606E0FFF748F934
:1023F000401B642801D90320C0E65F48006800F450
:1024000080700028F2D000BFE068012806D157484C
:10241000006A40F001005549086227E0E06858B9B9
:102420005248006A20F00100504908620846006ADC
:1024300020F00400086219E0E06805280BD14B4841
:10244000006A40F00400494908620846006A40F00A
:10245000010008620AE04548006A20F00100434993
:1024600008620846006A20F00400086200BFE068C5
:10247000A0B1FFF705F9054609E0FFF701F9401B98
:1024800041F28831884202D9032077E622E03748BA
:10249000006A00F002000028EFD012E0FFF7F0F829
:1024A000054608E0FFF7ECF8401B41F2883188420E
:1024B00001D9032062E62D48006A00F002000028DE
:1024C000F0D1012F05D12948C06920F0805027495B
:1024D000C86100BFE069C8B32448406800F00C0040
:1024E000082860D0E069022848D100202049086609
:1024F000FFF7C6F8054606E0FFF7C2F8401B0228C2
:1025000001D903203AE61948006800F0007000285D
:10251000F2D1206AB0F5803F07D11448406820F41A
:102520000030A168084311494860D4E90801084314
:102530000E49496821F4741108430C494860012090
:102540000B490866FFF79CF8054607E03DE0FFF7FA
:1025500097F8401B022801D903200FE603480068C2
:1025600000F000700028F2D02FE0000000100240C0
:1025700000004242800442420070004000201449A2
:102580000866FFF77DF8054606E0FFF779F8401B7F
:10259000022801D90320F1E50E48006800F0007020
:1025A0000028F2D111E0E069012800D1E6E50948F0
:1025B000466806F48031206A814204D106F4701125
:1025C000606A814201D00120D8E50020D6E50000F4
:1025D000000042420010024070B504462546681EC5
:1025E000B0F1807F01D301200FE0681E4FF0E021A1
:1025F00048610F214FF0FF3000F0BEFD00204FF08A
:10260000E021886107200861002070BD10B50446F4
:102610000CB9012010BD94F83D0028B9002084F8C1
:102620003C00204600F020F8022084F83D002046BF
:1026300000F066FC2068006920F480402168086191
:102640002068406920F02A00216848612068C0683D
:1026500040F400502168C86000202064012084F804
:102660003D000020D6E7000010B586B004460020EB
:1026700002900390049005901A49206888422FD157
:1026800000BF1948806940F48040174988610846B6
:10269000806900F48040019000BF00BF00BF084681
:1026A000806940F0040088610846806900F00400F9
:1026B000019000BF00BF4FF44070029002200390D1
:1026C0000320059002A90948FEF73AFE4FF4806006
:1026D000029000200390049002A90448FEF730FE07
:1026E00006B010BD00380140001002400008014053
:1026F0002DE9F84F04460E461746994694F83D00DA
:10270000012859D106B117B90120BDE8F88F00BFE3
:1027100094F83C00012801D10220F6E7012084F85A
:102720003C0000BF00202064122084F83D00FEF72A
:10273000A7FF824627856785A068B0F5805F04D132
:10274000206910B90025B04602E035464FF0000878
:102750001BE05346002280212046CDF8009000F077
:10276000ADFC08B10320D0E745B9B8F80000C0F3CC
:1027700008002168486008F1020803E02878216811
:1027800048606D1C608D401E6085608D0028E0D122
:102790005346002240212046CDF8009000F08EFCE8
:1027A00008B10320B1E7012084F83D0000BF0020FC
:1027B00084F83C0000BFA8E70220A6E700BFFEE7C0
:1027C000014608684069C0F38020B0B16FF48060B2
:1027D0000A68506100200863202081F83D00002035
:1027E00081F83E00086C40F00400086400BF00203F
:1027F00081F83C0000BF012070470020FCE700008A
:102800002DE9F84304460F4615469946DDE908864A
:102810002068006840F480602168086020680068D3
:1028200040F4807021680860434600224FF0011197
:102830002046009600F032F960B12068006800F48C
:102840008070B0F5807F02D14FF4007020640320C7
:10285000BDE8F88307F0FE00216808613346424670
:102860003E49204600F05DF908B10120F0E700BFC5
:1028700000200090206840690090206880690090E6
:1028800000BF00BF32464146204600F0ECF950B18F
:10289000206C042805D12068006840F4007021688D
:1028A00008600120D4E7B9F1010F03D1E8B2216833
:1028B000086117E0C5F307202168086132464146E8
:1028C000204600F0D0F950B1206C042805D12068D2
:1028D000006840F40070216808600120B8E7E8B2A1
:1028E0002168086132464146204600F0BCF950B1EB
:1028F000206C042805D12068006840F4007021682D
:1029000008600120A4E72068006840F48070216816
:102910000860434600224FF001112046009600F067
:10292000BDF858B12068006800F48070B0F5807F71
:1029300002D14FF400702064032089E7F8B240F020
:10294000010021680861334642460449204600F0F0
:10295000E8F808B101207BE7002079E702000100D8
:102960002DE9F8430446884615469946DDE908678F
:102970002068006840F480702168086033460022B7
:102980004FF001112046009700F088F860B12068F0
:10299000006800F48070B0F5807F02D14FF40070C1
:1029A00020640320BDE8F88308F0FE002168086178
:1029B0003B4632462149204600F0B3F808B10120D9
:1029C000F0E700BF00200090206840690090206878
:1029D0008069009000BF00BF3A463146204600F0B3
:1029E00042F950B1206C042805D12068006840F4F9
:1029F0000070216808600120D4E7B9F1010F03D10C
:102A0000E8B22168086117E0C5F307202168086172
:102A10003A463146204600F026F950B1206C042891
:102A200005D12068006840F400702168086001202A
:102A3000B8E7E8B2216808610020B3E702000100AE
:102A400070B504460D46164620E02046FFF7B8FE56
:102A500008B1012070BD681CC0B1FEF711FE801BDB
:102A6000A84200D895B900202063202084F83D00BA
:102A7000002084F83E00206C40F02000206400BF5D
:102A8000002084F83C0000BF0120E3E72068406993
:102A9000C0F380000028D8D00020DBE72DE9F0410A
:102AA00004460D4617461E46DDF818801CE0701CD3
:102AB000D0B1FEF7E5FDA0EB0800B04200D89EB90A
:102AC00000202063202084F83D00002084F83E0090
:102AD000206C40F02000206400BF002084F83C00FF
:102AE00000BF0120BDE8F081C5F3074001280AD1ED
:102AF00020684069A9B20840A9B2884201D10120EA
:102B00000BE0002009E020688069A9B20840A9B262
:102B1000884201D1012000E00020B842C7D0002047
:102B2000E0E72DE9F04104460D4616461F463DE01C
:102B300020684069C0F38020E8B12068006840F454
:102B40000070216808606FF480602168486100208F
:102B50002063202084F83D00002084F83E00206C93
:102B600040F00400206400BF002084F83C0000BF57
:102B70000120BDE8F081701CC0B1FEF781FDC01BD3
:102B8000B04200D896B900202063202084F83D0090
:102B9000002084F83E00206C40F02000206400BF3C
:102BA000002084F83C0000BF0120E2E7C5F30740A5
:102BB00001280AD120684069A9B20840A9B2884218
:102BC00001D101200BE0002009E020688069A9B252
:102BD0000840A9B2884201D1012000E0002000286D
:102BE000A6D00020C5E770B504460D46164632E073
:102BF00020684069C0F30010A0B16FF01000216898
:102C0000486100202063202084F83D00002084F8E3
:102C10003E00206C206400BF002084F83C0000BF10
:102C2000012070BDFEF72CFD801BA84200D895B98D
:102C300000202063202084F83D00002084F83E001E
:102C4000206C40F02000206400BF002084F83C008D
:102C500000BF0120E5E720684069C0F3801000282C
:102C6000C6D00020DDE770B504460D46164620E0CC
:102C70002046FFF7A5FD08B1012070BD681CC0B15A
:102C8000FEF7FEFC801BA84200D895B90020206307
:102C9000202084F83D00002084F83E00206C40F0A5
:102CA0002000206400BF002084F83C0000BF012009
:102CB000E3E720684069C0F3C0100028D8D00020A6
:102CC000DBE7000000B585B04FF47A70012104AA5B
:102CD0000B46CDE9002102907522D0212448FEF751
:102CE000BDFD9DF8100068283FD1002003904FF4EF
:102CF0007A70012103AA0B46CDE9002102906B22D4
:102D0000D0211B48FEF75CFF072003904FF47A7038
:102D1000012103AA0B46CDE9002102901922D021FE
:102D20001348FEF74DFF002003904FF47A70012105
:102D300003AA0B46CDE9002102901C22D0210C48A9
:102D4000FEF73EFF3220FEF7E7FA4FF47A700121DA
:102D500003AA0B46CDE9002102901B22D021044892
:102D6000FEF72EFF3220FEF7D7FA05B000BD0000B7
:102D70002000002000B585B0002001900290039053
:102D8000049000BF1648806940F00400144988612F
:102D90000846806900F00400009000BF00BF00BF3B
:102DA0000846806940F0080088610846806900F0A4
:102DB0000800009000BF00BF002220210948FEF754
:102DC00059FC202001900120029000200390022055
:102DD000049001A90348FEF7B3FA05B000BD000056
:102DE000001002400008014010B50B480B49086074
:102DF0000B484860002109488160C1604FF4804160
:102E00000161002141618161C1610162FEF73EFC07
:102E100008B1FEF77DFA10BD0054004020000020EC
:102E2000A086010010B50B480B4908604FF41650FE
:102E30004860002108488160C1600161082141614A
:102E400000218161C1610162FFF7E0FB08B1FEF77B
:102E50005FFA10BD003801407400002000BFFEE79B
:102E600000BFFEE77047000008B508490968C908B7
:102E70004FF47A72B1FBF2F14143009100BF00BF01
:102E800000994A1E00920029F9D108BD1C000020BB
:102E9000704710B5FEF780FF10BD00B58FB0282138
:102EA00005A8FDF744FA14216846FDF740FA022010
:102EB00005900120099010200A9002200C9000211A
:102EC0000D914FF4E0110E9105A8FFF753F908B1E9
:102ED000FEF71EFA0F2000900220019000200290C1
:102EE0004FF4806003900020049001216846FFF7B2
:102EF0000BF808B1FEF70CFA0FB000BD70470000E8
:102F000070B5044600252168C96821F00C012268CB
:102F1000D16021680D6925F47C55A16941F40061F7
:102F2000E2691143226A1143E26811430D432168AB
:102F30000D612168CD6841F20C618D432269A16861
:102F40001143626911430D432168CD6021684969CD
:102F500021F4407122685161574A2168914255D14C
:102F6000FFF7AEF800EBC00101EB001162689200C0
:102F7000B1FBF2F16422B1FBF2F10A0100EBC001F6
:102F800001EB001163689B00B1FBF3F100EBC003A0
:102F900003EB00136668B600B3FBF6F36426B3FBDD
:102FA000F6F303EBC30606EB0313A1EB8301322315
:102FB00003EB01116423B1FBF3F101F0F00102EB2B
:102FC000410200EBC00101EB001163689B00B1FB03
:102FD000F3F100EBC00303EB00136668B600B3FB2C
:102FE000F6F36426B3FBF6F303EBC30606EB031319
:102FF000A1EB8301322303EB01116423B1FBF3F155
:1030000001F00F0111442268916054E0FFF748F885
:1030100000EBC00101EB001162689200B1FBF2F11C
:103020006422B1FBF2F10A0100EBC00101EB0011D7
:1030300063689B00B1FBF3F100EBC00303EB0013EB
:103040006668B600B3FBF6F36426B3FBF6F303EB56
:10305000C30606EB0313A1EB8301322303EB01113B
:103060006423B1FBF3F101F0F00102EB410200EB4C
:10307000C00101EB001163689B00B1FBF3F100EBB1
:10308000C00303EB00136668B600B3FBF6F36426D7
:10309000B3FBF6F303EBC30606EB0313A1EB8301CB
:1030A000322303EB01116423B1FBF3F101F00F01B3
:1030B00011442268916070BD003801402DE9F04153
:1030C00004460D4617469846069E2BE0701C48B3F2
:1030D0002EB1FEF7D5FAA0EB0800B04222D9206845
:1030E000C06820F080002168C8602068C06820F0B7
:1030F00020002168C8602068C06820F480702168C2
:10310000C8602068406920F0010021684861012002
:1031100084F83D0000BF002084F83C0000BF03207D
:10312000BDE8F081206800682840A84201D1012054
:1031300000E00020B842C9D00020F1E700BFFEE760
:10314000490050EAC12018BF04204A0D18BF40F0C2
:10315000010040F2FF72B2EB515F08BF40F0020085
:10316000012808BF0520704702480068C0F302200C
:10317000704700000CED00E010B5002804DB0A07E2
:10318000130E054A135406E00A07140E034A00F012
:103190000F031B1FD45410BD00E400E018ED00E045
:1031A0009AB0FEF705FEFFF778FEFFF7E3FDFFF7A5
:1031B0001BFEFFF737FEFFF785FD32E0202119489F
:1031C000FEF74EFA00F060F800F01CF900F0BAF8D3
:1031D0001548006800F024FDCDE90401134800887B
:1031E00013490988134A1288134B1B88CDE9003212
:1031F000CDE90210114803881148028811A106A8E0
:10320000FCF7F2FF06A8FDF773F884B24FF47A7367
:10321000224606A91B48FFF76BFA6420FEF77CF8EC
:1032200000BFCBE7000801400C0000200400002094
:1032300002000020000000200A00002008000020FA
:10324000060000200A7B2067783A2025642C20673E
:10325000793A2025642C20677A3A2025642C206155
:10326000783A2025642C2061793A2025642C20614D
:103270007A3A2025642C2074656D703A2025667D8D
:103280000000000074000020F0B585B04FF47A70A3
:10329000062103AA0123CDE9002102903B22D0217F
:1032A0002348FEF7DBFA9DF80D009DF80C1040EA6C
:1032B0000120204908809DF80F009DF80E1040EA7B
:1032C00001201D4908809DF811009DF8101040EA6A
:1032D00001201A4908801748008800F04FFB064675
:1032E0000022174B00F0AEF9044600F003FB114931
:1032F00008801148008800F041FB06460022104B70
:1033000000F0A0F9044600F0F5FA0B4908800B48DC
:10331000008800F033FB06460022094B00F092F9CA
:10332000044600F0E7FA0549088005B0F0BD00004A
:1033300020000020000000200200002004000020E7
:103340000000D040F0B585B04FF47A70062103AA92
:103350000123CDE9002102904322D0212448FEF729
:103360007DFA9DF80D009DF80C1040EA01204042C6
:10337000204908809DF80F009DF80E1040EA0120BA
:1033800040421D4908809DF811009DF8101040EA48
:1033900001201A4908801748008800F0EFFA064615
:1033A0000022174B00F04EF9044600F0A3FA114931
:1033B00008801148008800F0E1FA06460022104B10
:1033C00000F040F9044600F095FA0B4908800B48DC
:1033D000008800F0D3FA06460022094B00F032F9CB
:1033E000044600F087FA0549088005B0F0BD0000EA
:1033F0002000002006000020080000200A00002015
:10340000006060402DE9FF474FF47A70022103AA63
:103410000123CDE9002102904122D0210D48FEF781
:103420001DFA9DF80D009DF80C1040EA01244FF4A0
:10343000AA7094FBF0F9484600F089FA0746064A5C
:10344000064B00F057F8054600F022F804490860E2
:10345000BDE8FF8720000020A4703D0AD74342400A
:103460000C00002010B500290AD00878002807D0E9
:1034700005487844FDF73AFB002801D0002010BD34
:103480000248784410BD00006A090000620900008B
:1034900021F00042A2F16052B2F5801F01F000431A
:1034A00028BFD2F17F6C0BD95FEA001C43EAC2024D
:1034B00042EB507018BF704728BF20F001007047E2
:1034C000B2F5801FBCBF184670474FEA410C1CF58F
:1034D000001F02D2084600F014BC70B500F061FA7B
:1034E00000000089FFF7F6BF4FF00040A0F5800014
:1034F0007047000010B591EA030F48BF83F0004306
:1035000000F1AC82841A71EB030C05D2121943EB63
:103510000C03001B61EB0C01DFF824E14FEA1154AE
:10352000A4EB135C1EEA430F18BF9EEA445F73D0FE
:1035300023EA0E03DCF1200E21EA045143F4801348
:1035400032D322FA0CFE10EB0E0023FA0CFE41EBF4
:103550000E01CCF1200E03FA0EFE10EB0E0051F11D
:103560000001B1F5801FCCF1200E32D201EB0451E5
:1035700012FA0EF2BDE8104058BF7047401C38BF29
:103580005FEA420218BF7047002814BF20F0010014
:1035900041F100014FEA410313F5001F38BF7047A6
:1035A000A1F1C04100F04BBA012A43EB0302ACF198
:1035B000200CDCF11F0E32BF4FF0000E23FA0CF38B
:1035C00010EB030041EB0451B4EB115FD0D0A1EB41
:1035D000045101F5801149085FEA300001EB045104
:1035E0000ED350F1000038BF12FA0EFE08D1BDE82C
:1035F0001040C9E7401C38BF5FEA4202CAD1C3E7A6
:10360000BDE810404FEA410313F5001F38BF704773
:10361000A1F1C04100F013BA9EEA445F08D011EA5C
:103620005E0FBDE8104004BF01F00041002070476C
:10363000BDE8104070B500F0B4F900BF64FBBE3EB9
:103640000000E0FF2DE9C04130B4DFF8A0C23CEA41
:10365000111418BF3CEA131400F0EC8081EA030552
:103660001CEA111444EAD57418BF1CEA131500F0C3
:10367000C780A4EB05044FF0004545EAC12145EAA7
:10368000C32341EA505143EA525304F17F749942F3
:1036900004F500344FEAC0204FEAC22208BF90422E
:1036A00000F09C804FEA13650FF24016765D4FEAFA
:1036B000134506FB05F7C7F1807706FB07F74FEACE
:1036C000D737A7FB03687642C8F58038A7FB06CE3C
:1036D00038BFA8F1010807FB08E64FF0000EA6FB73
:1036E000028CE6FB03CEDCF1000CCEF1004E38BFBD
:1036F000AEF1010EA6FB0C584FF000074FF000058D
:10370000E6FB0E87A1FB08C6A0FB07CE16EB0E0654
:1037100045F10005E1FB076515F1E04E7EBFA4F51C
:1037200080345FEA46066D4116F1800745F10005D9
:103730004FEA17274FEA066647EA0567A6F1DE4615
:10374000B6F1805F4FEA15251FD9384624F0010CE9
:1037500005EBC471BCF1FE6F01EB0C1102D8F0BC9B
:10376000BDE8008124425CBF01F5801E9EEAC47F53
:1037700002D4F0BCBDE80081244238D4F0BCA1F1F1
:10378000C041BDE8004100F05AB94FEAD22242EAF6
:1037900043524FEAD323A7FB02864FEAD02040EAE8
:1037A000415007FB03661EEA0E0F4FEAD12105FBCD
:1037B000026658BFA6EB0056B6EB00564FEA520E13
:1037C0004EEAC37E18EB0E0E56EB530EBDD518EB2A
:1037D00002085E417F1C55F10005B6E74FF48015E5
:1037E0004FF000074FF000064FF00008ADE7F0BCC7
:1037F0004FF0000001F1C04101F00041BDE800813F
:1038000011EA0C1F0CEA131500D00CE013EA0C1F90
:1038100000F025804FF00000F0BC81EA030101F0C8
:103820000041BDE80081F0BCBDE8004181EA030130
:1038300000F005B9F0BCBDE8004170B500F0B1F88A
:10384000097EFC3E00F007B881EA03014FF000005A
:1038500001F00041704781EA030100F0F0B8F0BCCC
:10386000BDE800414FF0000021497047FFFDFBF922
:10387000F7F5F4F2F0EEEDEBE9E8E6E4E3E1E0DEA3
:10388000DDDBDAD8D7D5D4D3D1D0CFCDCCCBCAC815
:10389000C7C6C5C4C2C1C0BFBEBDBCBBBAB9B8B73C
:1038A000B6B5B4B3B2B1B0AFAEADACABAAA9A8A82F
:1038B000A7A6A5A4A3A3A2A1A09F9F9E9D9C9C9BFD
:1038C0009A999998979796959594939392919190A8
:1038D0008F8F8E8E8D8C8C8B8B8A89898888878739
:1038E0008685858484838382828181800000FF07AE
:1038F0000000F87F4FEA1153A3F58063D3F11E0354
:10390000A8BFD3F1200C08DB4FF0004242EAC122ED
:1039100052EA505232FA03F0704709420BD4102B8E
:10392000C4BF0020704703F5787CBCF1FF3F05D091
:103930004FF0FF3070474FF00000704770B500F057
:1039400030F800BF4992248000207047F0E710F063
:10395000004248BF4042B0FA80F310FA03F10AD0A7
:10396000C3F11D0303F580634FEA415002EB03529C
:1039700002EBD12170474FF000007047B0FA80F39E
:1039800010FA03F10AD0C3F11D0303F580634FEA77
:1039900041504FEA035202EBD12170474FF0000033
:1039A00070470EF1020E2EF0030E5EF8046B3642E5
:1039B00005D4012A43EB030515F5001F12D8012891
:1039C00041EB010C1CF5001F0CD80ED14FEAD17C45
:1039D00015F5001F0CEB4C0C0CF1020C08BF4CEB66
:1039E000D37C04E04FF0080C01E04FEAD37C0CEBF1
:1039F0004C0526FA05F606F00706B6F1040C06D2C9
:103A00000EEB860CBDE870404CF0010C6047DFE81F
:103A10000CF0090B02024FF000414FF00000A1F53D
:103A2000002170BD19461046012851EB010418BF52
:103A3000D4F5001484BF002001F0004170BD0808D7
:103A4000A0F500114FEA31017047000010B591EA6E
:103A5000030F48BF83F000433FF554AD841A71EB68
:103A6000030C07D212198CF0004C43EB0C03001B23
:103A700061EB0C01DFF8A4E14FEA1154A4EB135CF5
:103A80001EEA430F18BF9EEA445F00F0B08023EAAD
:103A90006E03524221EA0451C3EB6E0338BF5B1E32
:103AA000DCF1200E25D322FA0CFE10EB0E0043FAB7
:103AB0000CFE41EB0E01CCF1200E03FA0EFE10EBD2
:103AC0000E0051F10001CCF1200E29D412FA0EF2B1
:103AD00001EB0451BDE8104058BF7047401C1CBFAB
:103AE000B2F1004F704700280CBF491C20F00100C4
:103AF000704712EB020E43EB030218BF4FF0010EAA
:103B00004EEA4202ACF1200CDCF11E0E54D943FA0D
:103B10000CFE10EB0E0051F1FF31CCF11E0ED5D58D
:103B20000EF1010E12FA0EFE404141EB010101EBD4
:103B3000445C5FEA5C5C10D910EBDE7001EB045171
:103B400038BFBEF1004FBDE8104018BF70470028D5
:103B50000CBF491C20F00100704730D24FEAD42C32
:103B600011F5001124F400641BD0B1FA81F20B3A74
:103B7000A41AA41ED2F12003914030FA03F3194392
:103B8000904001EBCC71002C01EB0451BDE81040DA
:103B9000A8BF704701F1C0414FF0000001F00041A3
:103BA0007047B0FA80F310FA03F100D110BDE41AA7
:103BB000173C4805C90AE4E701EB045110BD491060
:103BC00001EB0451BDE810404FEA300002E04FF035
:103BD000000170474A0008BF0042F8D0B2F5001F4C
:103BE00028BF704701F000414FF0000070479EEA87
:103BF000445F07D011EA5E0FBDE8104004BF00210A
:103C000000207047BDE8104070B5FFF7CAFE00BF46
:103C100040DFF63E83F00041104670470000E0FFB1
:103C200043004FEAD30C4FEA3C0C43401FBF400710
:103C30000CF1605113F0FE4F70471CF0006F03D180
:103C400000200CF0004170470CF0004343EA507034
:103C500010B540EACC0000F00EF800BF0000009262
:103C60004FEA0001FFF7EBBE4FF000414FF00000BC
:103C7000A1F5002170470EF1020E2EF0030E5EF842
:103C8000044B244204D44FEA4102B2F17F4F11D8D1
:103C90004FEA4003B3F17F4F0CD80ED14FEAD07CEE
:103CA000B2F17F4F0CEB4C0C0CF1020C08BF4CEB4B
:103CB000D17C04E04FF0080C01E04FEAD17C0CEB22
:103CC0004C0324FA03F404F00704B4F1040C06D204
:103CD0000EEB840CBDE810404CF0010C6047DFE8AF
:103CE0000CF0070802024FF00040A0F5800010BD64
:103CF0000846420018BFD2F1807288BF00F0004031
:103D000010BDFF2141EAD050C0057047FCF76BBCE5
:103D1000000000000000000001020304060708097B
:103D2000000000000102030402400000000000A0A7
:103D30000000000005400000000000C80000000076
:103D40000C4000000000409C0000000019400000F2
:103D50000020BCBE0000000034400000BFC91B8E24
:103D600000000004B5400000504BCFD06607E2CF02
:103D7000010000006C4100003E8251AADFEEA73432
:103D800001000000D9420000DCB5A0E23A301F97E4
:103D9000FFFFFFFFB4450000FD25A0C8E9A3C14F08
:103DA000FFFFFFFFFF3F0000000000800000000059
:103DB000FF3F00000000008000000000F83D000808
:103DC000000000202000000028010008183E000824
:103DD00020000020F8060000440100081C0000003C
:103DE00043000000F8FFFFFF0C0000000E00000081
:103DF0000F0000002E000000000000000000000086
:103E000000000000000000000000000010000000A2
:083E1000010000000024F40091
:04000005080000ED02
:00000001FF
